:020000040000fa
:080000000002040000000000f2
:020000040000fa
:04000800920800005a
:020000040000fa
:04000c009208000056
:020000040000fa
:040010009208000052
:020000040000fa
:04001400920800004e
:020000040000fa
:04001800920800004a
:020000040000fa
:04001c009208000046
:020000040000fa
:040020009208000042
:020000040000fa
:04002400920800003e
:020000040000fa
:04002800920800003a
:020000040000fa
:04002c009208000036
:020000040000fa
:040030009208000032
:020000040000fa
:04003400e8070000d9
:020000040000fa
:04003800920800002a
:020000040000fa
:04003c009208000026
:020000040000fa
:040040009208000022
:020000040000fa
:04004400420800006e
:020000040000fa
:04004800920800001a
:020000040000fa
:04004c009208000016
:020000040000fa
:040050009208000012
:020000040000fa
:04005400d8020000ce
:020000040000fa
:04005800920800000a
:020000040000fa
:04005c009208000006
:020000040000fa
:040060009208000002
:020000040000fa
:0400640092080000fe
:020000040000fa
:0400680092080000fa
:020000040000fa
:04006c00c8020000c6
:020000040000fa
:0400700092080000f2
:020000040000fa
:0400740092080000ee
:020000040000fa
:0400780092080000ea
:020000040000fa
:04007c0092080000e6
:020000040000fa
:0400800092080000e2
:020000040000fa
:0400840092080000de
:020000040000fa
:0400880092080000da
:020000040000fa
:04008c0092080000d6
:020000040000fa
:0400900092080000d2
:020000040000fa
:0400940092080000ce
:020000040000fa
:0400980092080000ca
:020000040000fa
:04009c0092080000c6
:020000040000fa
:0400a00092080000c2
:020000040000fa
:0400a40092080000be
:020000040000fa
:0400a80092080000ba
:020000040000fa
:0400ac0092080000b6
:020000040000fa
:0400b00092080000b2
:020000040000fa
:0400b40092080000ae
:020000040000fa
:0400b80092080000aa
:020000040000fa
:0400bc0092080000a6
:020000040000fa
:0400c00092080000a2
:020000040000fa
:0400c400920800009e
:020000040000fa
:0400c800920800009a
:020000040000fa
:0400cc009208000096
:020000040000fa
:0400d0009208000092
:020000040000fa
:0400d400920800008e
:020000040000fa
:0400d800920800008a
:020000040000fa
:0400dc009208000086
:020000040000fa
:0400e0009208000082
:020000040000fa
:0400e400920800007e
:020000040000fa
:0400e800920800007a
:020000040000fa
:0400ec009208000076
:020000040000fa
:0400f0009208000072
:020000040000fa
:0400f400920800006e
:020000040000fa
:0400f800920800006a
:020000040000fa
:0400fc009208000066
:020000040000fa
:040100009208000061
:020000040000fa
:04010400920800005d
:020000040000fa
:040108009208000059
:020000040000fa
:04010c009208000055
:020000040000fa
:040110009208000051
:020000040000fa
:04011400920800004d
:020000040000fa
:040118009208000049
:020000040000fa
:04011c009208000045
:020000040000fa
:040120009208000041
:020000040000fa
:04012400920800003d
:020000040000fa
:040128009208000039
:020000040000fa
:04012c00c607000002
:020000040000fa
:040130009208000031
:020000040000fa
:04013400920800002d
:020000040000fa
:040138009208000029
:020000040000fa
:04013c009208000025
:020000040000fa
:040140009208000021
:020000040000fa
:04014400920800001d
:020000040000fa
:040148009208000019
:020000040000fa
:04014c009208000015
:020000040000fa
:040150009208000011
:020000040000fa
:040208009208000058
:020000040000fa
:04020c009208000054
:020000040000fa
:040210009208000050
:020000040000fa
:04021400920800004c
:020000040000fa
:040218009208000048
:020000040000fa
:04021c009208000044
:020000040000fa
:040220009208000040
:020000040000fa
:04022400920800003c
:020000040000fa
:040228009208000038
:020000040000fa
:04022c009208000034
:020000040000fa
:040230009208000030
:020000040000fa
:04023400e8070000d7
:020000040000fa
:040238009208000028
:020000040000fa
:04023c009208000024
:020000040000fa
:040240009208000020
:020000040000fa
:04024400420800006c
:020000040000fa
:040248009208000018
:020000040000fa
:04024c009208000014
:020000040000fa
:040250009208000010
:020000040000fa
:04025400d8020000cc
:020000040000fa
:040258009208000008
:020000040000fa
:04025c009208000004
:020000040000fa
:040260009208000000
:020000040000fa
:0402640092080000fc
:020000040000fa
:0402680092080000f8
:020000040000fa
:04026c00c8020000c4
:020000040000fa
:0402700092080000f0
:020000040000fa
:0402740092080000ec
:020000040000fa
:0402780092080000e8
:020000040000fa
:04027c0092080000e4
:020000040000fa
:0402800092080000e0
:020000040000fa
:0402840092080000dc
:020000040000fa
:0402880092080000d8
:020000040000fa
:04028c0092080000d4
:020000040000fa
:0402900092080000d0
:020000040000fa
:0402940092080000cc
:020000040000fa
:0402980092080000c8
:020000040000fa
:04029c0092080000c4
:020000040000fa
:0402a00092080000c0
:020000040000fa
:0402a40092080000bc
:020000040000fa
:0402a80092080000b8
:020000040000fa
:0402ac0092080000b4
:020000040000fa
:0402b00092080000b0
:020000040000fa
:0402b40092080000ac
:020000040000fa
:0402b80092080000a8
:020000040000fa
:0402bc0092080000a4
:020000040000fa
:0402c00092080000a0
:020000040000fa
:0402c400920800009c
:020000040000fa
:0402c8009208000098
:020000040000fa
:0402cc009208000094
:020000040000fa
:0402d0009208000090
:020000040000fa
:0402d400920800008c
:020000040000fa
:0402d8009208000088
:020000040000fa
:0402dc009208000084
:020000040000fa
:0402e0009208000080
:020000040000fa
:0402e400920800007c
:020000040000fa
:0402e8009208000078
:020000040000fa
:0402ec009208000074
:020000040000fa
:0402f0009208000070
:020000040000fa
:0402f400920800006c
:020000040000fa
:0402f8009208000068
:020000040000fa
:0402fc009208000064
:020000040000fa
:04030000920800005f
:020000040000fa
:04030400920800005b
:020000040000fa
:040308009208000057
:020000040000fa
:04030c009208000053
:020000040000fa
:04031000920800004f
:020000040000fa
:04031400920800004b
:020000040000fa
:040318009208000047
:020000040000fa
:04031c009208000043
:020000040000fa
:04032000920800003f
:020000040000fa
:04032400920800003b
:020000040000fa
:040328009208000037
:020000040000fa
:04032c00c607000000
:020000040000fa
:04033000920800002f
:020000040000fa
:04033400920800002b
:020000040000fa
:040338009208000027
:020000040000fa
:04033c009208000023
:020000040000fa
:04034000920800001f
:020000040000fa
:04034400920800001b
:020000040000fa
:040348009208000017
:020000040000fa
:04034c009208000013
:020000040000fa
:04035000920800000f
:020000040000fa
:100400004f8b20000ebf20000e018800000000006e
:10041000000020000000e000020032000001200087
:100420002002880014000700400307000000e000dd
:1004300003003a00c07421000100200002003700d0
:100440000000200001002000810f70000100320038
:1004500014000700000020000000e000020032004d
:10046000000002000000000012170200000000005f
:100470000040da000000fe004440a90060072000b0
:100480000000e0000300320000002000a00188000e
:100490004440a800000006008a1f78008b1f7800e7
:1004a0000000060091018800800478000000eb0045
:1004b0001a003700e284440032a0b4009905ba0063
:1004c000e284440032a0b4009906ba00e2844400f9
:1004d00032a0b4000006eb00476fde00fd07b2005b
:1004e000636ce10003003a00ebff07000000eb0043
:1004f0000a003700606ce10004003a00005deb0088
:100500008b05e900fdff3e00040037006168e10053
:10051000010032000086eb000b00070019c7ba008b
:100520001905ba000e04e00003003a000a00e000da
:10053000e0ff3a0000000600fe07b2009e018800be
:100540008a047800f5ff3700395dba008b05e900b1
:100550000c003200295dba008b05e900080032006a
:100560000c00e00003003a00e284440032a0b40032
:10057000f5ff370019ddba008b05e900faff3a00f4
:100580008904e800e184440032a0b40000000600c1
:10059000801f78000000fa0010c0b300aee8b7007a
:1005a0008620a9000080fa004f0078000040060075
:1005b0003600f800809fbe00829fbe00849fbe0070
:1005c000869fbe000400fa0081e0a8008560a900b3
:1005d00030118000004f78004ac8bf000080fb0047
:1005e000e40f500080013200e40f50000c003c008a
:1005f000e10f500025003200e10f500003003c00e5
:100600000000e0000f00320049023700e20f500006
:1006100032003200e30f50003d0132004402370047
:10062000e60f5000cc013200e60f50009c0135006f
:10063000e70f5000f6013200e80f500022023200ae
:100640003b02370000c4b3009e40780080cf5000ca
:1006500039023600a0c5b3009e40780080cf50001c
:1006600037023e004ac8bf000081fb009e40780070
:10067000e084200000004100014878004ac8bf0023
:100680000040e8004ae8b7003802370000c4b30071
:100690009e40780080cf50000e003600a0c5b30009
:1006a0009e40780080cf50000a003e004ac8bf003c
:1006b0000081fb009e407800e084200000004100a3
:1006c000014878004ac8bf000040e8004ae8b70087
:1006d000260237008d0807002402370030c2b3001d
:1006e0009e40780080cf50009e003a0010c0b300ba
:1006f00047e8b7004868ef004ec8bf000080fb0025
:10070000c800dd004fc8bf000080fb000100700082
:10071000100798001e00900031952400810f5000b2
:100720004400320031952400810f500014003e0037
:1007300081152400810f50002c0032008115240007
:10074000810f500007003e0031142400810f50003b
:100750001f00320031152400810f50001f003200ad
:100760007d00370091152400810f500024003200d5
:1007700011842400810f50002700320076003700da
:1007800051442500810f500054003200514425008f
:10079000810f500007003e00f1042500810f50003a
:1007a0003a00320031442500810f500048003200e9
:1007b0006900370071442500810f50004c00320061
:1007c00031452500810f50005f0032006200370084
:1007d0004968ef004d0807006100370010c0b30002
:1007e00049e8b700490807005d0037004968ef0095
:1007f0000a28ef000c28ef004408070058003700d3
:1008000010c0b30049e8b7000a28ef000c28ef0039
:100810003e0807005200370029c8bf000004e0006e
:100820000200320010c0b30028e8b7003708070004
:100830004b00370029c8bf000004e0000900320067
:10084000a08520008b03070080007800a085200091
:10085000008040003200200051bf2800c90207007c
:1008600008003700a0852000820307008000780080
:10087000a0852000008040003200200021bf280019
:10088000c0020700210807003500370050408000f3
:100890006140800022812000ca08070020812000da
:1008a0007403070080007800208120000080400051
:1008b0002200200001bf2800b20207002181200091
:1008c000a08520005a030700100807002400370005
:1008d0003f68ef000d08070021003700518320001a
:1008e000a085200052030700080807001c003700fd
:1008f0003fc8bf000004e00009003200a0852000ce
:100900005c03070080007800a08520000080400084
:100910003200200051bf28009a020700080037006b
:10092000a08520005303070080007800a0852000e8
:10093000008040003200200021bf28009102070003
:10094000f20707000600370010c0b3003fe8b70009
:10095000ee07070002003700ec0707000000000068
:1009600082013700f0c2b3009e40780080cf500073
:100970000400360090c3b3009e40780080cf500042
:1009800004003600d0c2b3009e40780080cf5000f3
:100990005d003a0010c0b30047e8b7004868ef00b8
:1009a0004ec8bf000080fb00c800dd004fc8bf007c
:1009b0000080fb0001007000100798001e009000ee
:1009c000f1d42400810f50001d003200f1d4240026
:1009d000810f500004003e0091d42400810f50008c
:1009e000080032004400370031d52400810f500048
:1009f0002300320031352500810f50002f003200d6
:100a00003d003700c6070700624280009e40780024
:100a100030852000000041000148780060428000dd
:100a20000000e800604288004ac8bf000040e800bb
:100a30004ae8b70030c0b30008e8b700300037001c
:100a4000b7070700624280009e4078003085200092
:100a50000000410001487800604280000000e8008a
:100a6000604288004ac8bf000040e8004ae8b7007a
:100a700010c0b30008e8b700d40607002000370014
:100a8000a7070700624280009e4078003085200062
:100a90000000410001487800604280000000e8004a
:100aa000604288004ac8bf000040e8004ae8b7003a
:100ab00020c0b30008e8b70011003700980707000e
:100ac000624280009e407800308520000000410096
:100ad00001487800604280000000e8006042880021
:100ae0004ac8bf000040e8004ae8b70040c0b30071
:100af00008e8b70002003700840707000000000084
:100b000000000000190137008007070017013700b7
:100b100030c2b3009e40780080cf50001c003a00e5
:100b20003185200091407800d0c2b30080cf5000c2
:100b30001500320008c8bf00e14f500002003a0023
:100b40004d0707000e00370008c8bf00e24f5000f5
:100b500002003a00560707000900370008c8bf0026
:100b6000e34f500002003a00590707000400370025
:100b700008c8bf00e44f500001003a005c070700be
:100b800062070700f900370060070700f700370029
:100b9000f0c2b3009e40780080cf500010003600b5
:100ba00090c3b3009e40780080cf50000c003e0000
:100bb000624280009e4078003085200000004100a5
:100bc00001487800604280000000e8006042880030
:100bd0004ac8bf000040e8004ae8b700e300370019
:100be0004a070700e100370030c2b3009e4078009a
:100bf00080cf500014003a0008c8bf00e14f5000f9
:100c000002003a001c070700d800370008c8bf00e0
:100c1000e24f500002003a0025070700d3003700da
:100c200008c8bf00e34f500002003a002807070041
:100c3000ce00370008c8bf00e44f5000c2003a00a1
:100c40002b070700c9003700f0c2b3009e407800b0
:100c500080cf50001000360090c3b3009e40780053
:100c600080cf50000c003e00624280009e40780021
:100c7000308520000000410001487800604280007b
:100c80000000e800604288004ac8bf000040e80059
:100c90004ae8b700b50037001c070700b30037006b
:100ca00030c2b3009e40780080cf500014003a005c
:100cb00008c8bf00e14f500002003a00ee060700ee
:100cc000aa00370008c8bf00e24f500002003a00f7
:100cd000f7060700a500370008c8bf00e34f500023
:100ce00002003a00fa060700a000370008c8bf005b
:100cf000e44f500096003a00fd0607009b003700c5
:100d0000f0c2b3009e40780080cf50001000360043
:100d100090c3b3009e40780080cf50000c003e008e
:100d2000624280009e407800308520000000410033
:100d300001487800604280000000e80060428800be
:100d40004ac8bf000040e8004ae8b7008700370003
:100d5000ee0607008500370030c2b3009e407800e1
:100d600080cf500014003a0008c8bf00e14f500087
:100d700002003a00c00607007c00370008c8bf0028
:100d8000e24f500002003a00c90607007700370022
:100d900008c8bf00e34f500002003a00cc0607002d
:100da0007200370008c8bf00e44f50006a003a00e4
:100db000cf0607006d003700f0c2b3009e407800f8
:100dc00080cf50001000360090c3b3009e407800e2
:100dd00080cf50000c003e00624280009e407800b0
:100de000308520000000410001487800604280000a
:100df0000000e800604288004ac8bf000040e800e8
:100e00004ae8b70059003700c0060700570037000e
:100e100030c2b3009e40780080cf500014003a00ea
:100e200008c8bf00e14f500002003a0092060700d8
:100e30004e00370008c8bf00e24f500002003a00e1
:100e40009b0607004900370008c8bf00e34f500069
:100e500002003a009e0607004400370008c8bf00a1
:100e6000e44f50003e003a00a10607003f00370063
:100e7000f0c2b3009e40780080cf500010003600d2
:100e800090c3b3009e40780080cf50000c003e001d
:100e9000624280009e4078003085200000004100c2
:100ea00001487800604280000000e800604288004d
:100eb0004ac8bf000040e8004ae8b7002b003700ee
:100ec000920607002900370030c2b3009e40780028
:100ed00080cf500014003a0008c8bf00e14f500016
:100ee00002003a00640607002000370008c8bf006f
:100ef000e24f500002003a006d0607001b00370069
:100f000008c8bf00e34f500002003a007006070017
:100f10001600370008c8bf00e44f500012003a0026
:100f20007306070011003700780607000f0037002e
:100f3000760607000d003700000000000b003700a8
:100f40000000000009003700000000000700370023
:100f5000000000000500370000000000030037001b
:100f600000000000010037000000000081e0a9003f
:100f70000080fa004f03be004f02be004f01be00ca
:100f80004f00be003600f90000400600801f7800c8
:100f90000200fa0010118000640060000000e00010
:100fa0000200320030118000004f780010118000e4
:100fb000620060000000e000010032002222a9006f
:100fc0008c20a9000080fa004f0078000040060045
:100fd0003600f800809fbe00829fbe00849fbe0046
:100fe000869fbe000000fa002ac8bf000004e0008f
:100ff000090032002cc8bf000040e8002ce8b70010
:101000002cc8bf00e14f5000030036002a68ef00f3
:101010002c68ef002968ef004507070005c8bf00ee
:101020000040e80005e8b70005c8bf00f14f5000d8
:10103000010036000568ef0048c8bf000040e80026
:1010400048e8b700818420009140780020c3b300b5
:1010500080cf5000020036004868ef004768ef007c
:10106000310407008460a9000080fa004f03be002d
:101070004f02be004f01be004f00be003600f90017
:10108000004006003600f800809fbe00829fbe0030
:10109000849fbe00869fbe000200fa0027c8bf00e2
:1010a0000004e000010032005005070081e0a800c4
:1010b000a08520006f010700004f78001e407800d7
:1010c0000004e0000e00320000000000111180005a
:1010d00000102000008060000000e000fbff3200f4
:1010e0005ac8bf000000fb0020118800b085200016
:1010f000d201200080007800a0852000a800070011
:1011000081e0a90084e0a9000080fa004f03be003e
:101110004f02be004f01be004f00be003600f90076
:10112000004006000040da000000fe00000005005c
:10113000839f68000100e00002003d006000100095
:10114000e08018000300e00002003d006001110093
:10115000e0811900140007004f00e00002003b008e
:1011600060001000e080180000000600811f780079
:101170000100e00002003d0060001000e080180067
:101180000300e00002003d0060011100e081190051
:10119000150007004f00e00002003b006000100057
:1011a000e0801800000006006022b800060220005f
:1011b0000000d0008180d2000482d2008582d2005b
:1011c0000000a0000202520083825a000300310096
:1011d0000202420083824a000000a1000603e900e7
:1011e000f3ff3a0000000600efff07000400be0016
:1011f000000006008000780010002000020220009d
:10120000828f500004003200e9805000e48f5000cb
:10121000010036000000eb0000000600889fbe00c1
:101220008a1f7800000578000a0478009844780046
:101230000805e8000900fb00eeff07000000e000e1
:10124000f9ff3a00b0c2b30080cf5400050032006d
:10125000d0c2b3008000eb0080cf540005003a00fc
:10126000020037008000eb00010037001100200071
:101270000804e8000000eb00030037006a02b90030
:10128000020052000003b0003801fb0003fd2f00f4
:1012900082814100e98f5100f8ff36000100e00033
:1012a00001003a000000ea004f0578004f04be003c
:1012b00000000600800078001000200002022000dc
:1012c000828f500004003200e9805000e48f50000b
:1012d000010036000000eb0000000600889fbe0001
:1012e0008a9fbe00000578008a04780019447800bf
:1012f0000905e8000800fb00eeff07000000e00021
:10130000f9ff3a00b0c2b300804f5400040032002d
:10131000d0c2b300804f540006003a0002003700ec
:101320000004eb0001003700180020008904e800e9
:10133000010037000004eb006000b8000600370031
:10134000a20020000300200002010700cfd5de002c
:101350000a0050008b8058003905fb000a03b100d9
:10136000e90f5500f6ff36000800e00002003a00e1
:1013700060001000e08018004f05be004f04be0062
:10138000000006008001780002003700b1597800a3
:101390000201e9000200e000fcff3a000000060044
:1013a0008001780081027800810f50003b003200fc
:1013b00002824000840f500003003100020240000e
:1013c000848f500001003900eeff37000082680072
:1013d000810f50001b0031000408a30005003200fb
:1013e000150037000200e0002c0032000201e90085
:1013f000b15978000308a300faff3a00030378000c
:10140000820278000102780002003700b4197800e7
:101410000281e900e10f5100fcff3e0061816200a2
:101420000500a100850143008582400002003700cd
:10143000b55978000201e9000200e000fcff3a0023
:10144000000006000408a30012003a000400370060
:101450000200e000110032000201e9006170790031
:10146000820140000308a300f9ff3a0082017800de
:10147000020037000281e90061307900e10f51007c
:10148000fcff3e0061816100020037000201e900bb
:10149000617079000200e000fcff3a0000000600e5
:1014a000889fbe008a9fbe00800478000200e00092
:1014b0005b00320001407800814c7800828144005a
:1014c000f1f99f00e20f5100550036009144980059
:1014d000a1449800e1f99f00d1f99f00e60f510067
:1014e0004f003600b1449800c1f99f00e80f510049
:1014f0004b0036000905ea00630565000a844400d4
:101500000a055100c1ff2f00010565000080fb00a6
:101510008000eb0012102000131020008d00070047
:10152000008cbe000a01440060b99f0071b99f00a1
:10153000e80f55003a003600200498003104980066
:10154000400498005104980020b99f0031b99f00d1
:1015500040b99f0051b99f00f80f55003000360088
:101560006004980071049800000c9800110c980019
:10157000200c9800310c9800400c9800510c9800f9
:1015800020b19f0031b19f0040b19f0051b19f0039
:1015900060b19f0071b19f0000b99f0011b99f0019
:1015a0006401640078014100020444000205550012
:1015b0006011b8000203be000002be000403be00ba
:1015c0006022b80000007200818072000201730086
:1015d0008381730010003700009cbe000294be009f
:1015e0004004980051049800620498007304980025
:1015f000000c9800110c9800220c9800330c9800f5
:10160000400c9800510c9800620c9800730c9800e4
:101610000a02b1000802b000ff0f5500eeff3e00c5
:10162000090078004f05be004f04be000000060010
:10163000889fbe000004be00080078000d0007006f
:1016400000004400890078000300070008007800cb
:101650004f04be0000000600881f780000047800d8
:10166000080078001b000700080078004f0478008d
:101670000000060080007800040037003104e0001c
:1016800002003a000000510000000600010178004d
:101690000108a300f9ff3a008101780031017800c8
:1016a000f4ef2f00020242000281ea000201620010
:1016b0000408280004016100f7ff3200830078006d
:1016c000010178003104e000fdff3a000000510004
:1016d00000000600010178008001780000826800a7
:1016e0000408a300050032001300370032407800e0
:1016f000805978000004e0001400320003027800f2
:101700000208a300f9ff3a00030078000100370047
:101710000318780082007800b2017800f5ef2f00fe
:10172000838242000382ea000482620005082800e6
:1017300005026200f6ff32000002780031417800b5
:10174000025878000204e000fbff3a000400780031
:1017500000000600020ab900001bb9000200b80030
:0c176000810042008100430000000600f0
:020000040000fa
:10176c002e30000023000000414300000000000068
:10177c004153000000000000415800000000000030
:10178c0041590000000000004445000000480000e2
:10179c004100000049530000005000004f000000c1
:1017ac005443000000540000450000005447000062
:1017bc0000540000530000004d490000004d000093
:1017cc004f0000004d530000005300005300000078
:1017dc002e00000023000000302300000031000028
:1017ec0023000000483100006223000000000000cc
:1017fc0000000000000000000000000000000000dd
:10180c00000000000000000000000000303000006c
:10181c003131000032330000333400003535000024
:10182c003636000037380000383900003030000000
:10183c00230000003031000032330000343500004a
:0c184c00363700003839000000000000b2
:020000040000fa
:101858000000fa00cf02a800cf22a8000742a90082
:10186800f0032000201088000a22ef000c22ef006d
:1018780007e2a8009620a800610580000007200064
:1018880001007000600588008620a900ae68ef009e
:101898000080fa00000006000000fa0000000000c6
:1018a800aec8bf000004a2000004e000fcff3a003c
:1018b800ae68ef000080fa00000006000200fa009f
:1018c800004f78008368ef000602a800f2ff0700c7
:1018d800000a200010108800efff07004110800068
:1018e80000002800008060000000e00002003200d4
:1018f8000040eb00210037001e80fb00101088001c
:10190800e5ff07004110800000002800008060000b
:101918000000e000020032000040eb001700370032
:101928000622a800dcff0700100a2000101088001b
:10193800d9ff0700411080000000280000806000e7
:101948000000e000020032000040eb000b0037000e
:101958000662a800d0ff0700001080000040780051
:1019680083e8b70006a2a8000682a800caff0700fd
:101978000642a800c8ff070010c0b3000080fa00a4
:10198800000006000400fa0020479800314798003c
:101998000602a800c0ff0700000a200010108800f7
:1019a800bdff070041108000000028000080600093
:1019b8000000e000020032000040eb003c0037006d
:1019c8002e4090000080fb0010108800b2ff070036
:1019d8004110800000002800008060000000e00046
:1019e800020032000040eb00310037000622a80058
:1019f800a9ff0700100a200010108800a6ff0700a2
:101a08004110800000002800008060000000e00015
:101a1800020032000040eb00250037000040eb00d8
:101a2800004f78000c0037000662a8009aff0700f4
:101a38001e81fb0000108000804078003088200064
:101a4800000041000148780006a2a9000682a8000b
:101a580091ff07001e4fe8009e80fb003e4090006b
:101a68000080fb000000e900808f5000eeff350089
:101a78000662a80088ff07003e4090000080fb0037
:101a88000001e900001080008040780030882000c4
:101a9800000041000148780006a2a8000682a800bc
:101aa8007dff07000642a8007bff070010c0b300b7
:101ab8000080fa00000006000200fa00004f7800db
:101ac800114798000602a80073ff0700000a2000cb
:101ad8001010880070ff07004110800000002800e7
:101ae800008060000000e000020032000040eb00cf
:101af8001b0037001e80fb001010880066ff0700df
:101b08004110800000002800008060000000e00014
:101b1800020032000040eb00110037001e40900028
:101b28000080fb00101088005bff07004110800058
:101b380000002800008060000000e0000200320081
:101b48000040eb00060037000642a80052ff0700dd
:101b580000d4200031002000bf04070010c0b300eb
:101b68000080fa00000006000400fa0020479800f0
:101b7800314798000602a80047ff0700000a200026
:101b88001010880044ff0700411080000000280062
:101b9800008060000000e000020032000040eb001e
:101ba800270037002e4090000080fb0010108800ae
:101bb80039ff070041108000000028000080600005
:101bc8000000e000020032000040eb001c0037007b
:101bd8000040eb00004f78000f0037009e80fb00ac
:101be8007089200000804000104078000000fb0051
:101bf8001010880028ff070041108000000028000e
:101c0800008060000000e000020032000040eb00ad
:101c18000b0037001e4fe8003e4090009e407800c1
:101c280080cf5000edff39000642a8001aff0700d8
:101c380000d42000310020008704070010c0b30042
:101c48000080fa00000006000200fa00004f780049
:101c5800114798000602a8000fff070000032000a4
:101c6800101088000cff07004110800000002800b9
:101c7800008060000000e000020032000040eb003d
:101c8800180037001e80fb001010880002ff0700b4
:101c98004110800000002800008060000000e00083
:101ca800020032000040eb000e0037001e4090009a
:101cb8000080fb0010108800f7fe0700411080002c
:101cc80000002800008060000000e00002003200f0
:101cd8000040eb00030037000642a800eefe0700b4
:101ce80010c0b3000080fa00000006000000fa00ef
:101cf8008368ef000602a800e7fe07001003200033
:101d080010108800e4fe0700411080000000280041
:101d1800008060000000e000020032000040eb009c
:101d28000b0037000662a800dbfe070000108000e9
:101d38000040780083e8b70006a2a8000682a80041
:101d4800d5fe07000642a800d3fe070010c0b30066
:101d58000080fa00000006000200fa00004f780038
:101d68009e4078000040eb0053ff07000004e000ad
:101d780002003a000040eb000100370010c0b30039
:101d88000080fa00000006000400fa00008fbe0080
:101d98001e0078000040780097e8b7001e00be00db
:101da8004809dd004803de0006037100c88bde0029
:101db8000640780098e8b7001e00be00408ade00a2
:101dc800cf8ade000440780099e8b7001e00be0004
:101dd8004889de00cf89de00024078009ae8b70023
:101de80041c0b30010c0b3005fff07000004e0006b
:101df80002003a000040eb000100370010c0b300b9
:101e08000080fa00000006000200fa000040eb0023
:101e1800004f7800a1c0b3000040eb00d9fe0700d6
:101e2800e14f50001f003a0083c8bf0001e8b70027
:101e3800118020009140780040c6b30080cf500048
:101e4800070036000168ef0001c8bf00c2ff0700a5
:101e58000004a2000004e000010032001e4fe80068
:101e680084c8bf008041780085c8bf000041780061
:101e780086c8bf008040780087c8bf009603070067
:101e88008000eb0050408800614088001e407800c8
:101e98000004e00005003a0010c0b30010479800a5
:101ea800020037000040eb00104798001e409000e9
:101eb8000080fa00000006000200fa000040eb0073
:101ec800004f78000168ef0001c8bf00a2ff0700bb
:101ed8000004a2000004e000010032001e4fe800e8
:101ee8000a28ef000c28ef00504080006140800075
:101ef800a5ff07000004a2000004e0000100320072
:101f08001e4fe8001e4078000004e00002003a007e
:101f180010c0b300010037000040eb000080fa0059
:101f2800000006000000fa0000a02500212620007d
:101f3800c903070046fe070000c42900010020006d
:101f4800c50307000068ef00afff07000004a20008
:101f58000004e000120032003dfe070000c4290022
:101f680001002000bc030700a7ff07000004a2002f
:101f78000004e0000a00320035fe070000c4290012
:101f880001002000b40307009fff07000004a2001f
:101f98000004e0000200320010c0b30000e8b700ff
:101fa8000080fa00000006000000fa00c802a9003c
:101fb800ca02a9000080fa00000006000000fa002a
:101fc800c802a8000080fa00000006000400fa0019
:101fd800204798000040eb00004f780018003700b9
:101fe800c802a900ca02a900800720000100200039
:101ff800990307002e4090000080fb0061006000fc
:10200800004078000004e00001003200ca02a80085
:102018002e4090000080fb000000d100204798006f
:1020280000962000010020008b030700c802a800ca
:102038008011200001002000870307001e4fe800e0
:102048001e407800e74f5000e5ff36000080fa0098
:10205800000006000400fa000040eb00104798005a
:1020680000c8b300204798000040eb00004f7800fc
:1020780019003700c802a900ca02a900800c200074
:102088000100200074030700c802a8008025200072
:1020980001002000700307001e4090000080fb0034
:1020a8000000d100104798005016800061006000c1
:1020b8000000e000040032009e4090002e40900096
:1020c80000c0700010479800007d2000010020002b
:1020d800610307001e4fe8001e407800e74f5000dc
:1020e800e4ff36001e4090000080fa000000060061
:1020f8000000fa0000fa2000010020005603070043
:1021080050168000610060000000e000020032000c
:1021180010c0b30044e8b7000080fa0000000600d1
:102128000a00fa0029c8bf000004e00002003200db
:102138000568ef001601370005c8bf000080fb00e6
:102148006101b9000080eb008080eb0002004000d4
:10215800838048000201200003002000820f500005
:10216800838f5800f5003e00006001001000370022
:102178001200370014003700f2003700f100370072
:10218800f0003700ef003700ee003700ed003700b1
:10219800ec003700150037001a0037001f00370021
:1021a800270037002f0037003f003700470037006f
:1021b8004468ef007cff0700f50037007fff070049
:1021c800cbff0700f200370044c8bf000004a2009c
:1021d8000004e000dd003200c0ccb3007bff070044
:1021e80040c4b30079ff0700e900370044c8bf00c6
:1021f8000004a2000004e000d60032006aff0700d5
:10220800e300370044c8bf000004a2000004e00057
:10221800d200320069ff0700dd00370044c8bf0064
:102228000004a2000004e000ce003200c0ccb300dd
:1022380066ff0700e0cbb30064ff0700d400370057
:1022480044c8bf000004a2000004e000c700320038
:1022580080ff070040e8b7007eff070041e8b700ad
:10226800cb00370041c8bf00e14f400005003a00ed
:1022780040c8bf00e14f400002003a0010c0b30060
:1022880044e8b70044c8bf000004a2000004e0000e
:10229800b80032006fff0700004f78006dff07009d
:1022a800004f7800ba00370044c8bf000004a200fd
:1022b8000004e000b100320000c0eb0042e8b700c3
:1022c80064ff070042e8b700b100370044c8bf0008
:1022d8000004e0000c00320045c8bf000040e800e0
:1022e80045e8b70045c8bf00e24f5000a5003600da
:1022f80032002000d1c12800508320001ffc0700b5
:102308004568ef00a2003700218420009140780042
:10231800f0c7b30080cf50007c003a00c0c0b300c3
:1023280043e8b70034c8bf000080fb000000e000ad
:1023380003003200e10f50000f0032007000370038
:1023480041c8bf000080fb00c800dd0040c8bf00d6
:102358000080fb004400de00004078000080fb00a5
:10236800010070008041880034c8bf000040e800c8
:1023780034e8b7006400370041c8bf000080fb00a4
:10238800c800dd0040c8bf000080fb004400de003c
:10239800004078000080fb00010070009041880038
:1023a8008141800090418000808f500052003a00a7
:1023b8004568ef0041c8bf000080fb00c800dd0091
:1023c80040c8bf000080fb00010070007041880019
:1023d800704180000000e00025003d007041800051
:1023e8000000e00001003d006f0040004480de0076
:1023f80010079800704180000040780000c0ea0093
:102408006f4060000040e800404798009e00900040
:1024180090fc2f00808f5000370035001e00900080
:10242800cf80de0052832000e401070050832000a3
:102438008efc070080007800508320000080400058
:1024480022002000e1be2800ccfb07004e4090008f
:102458000080fb00c1c0280061407800b0e8b700e8
:10246800018b2000508320006ffc070022003700fa
:10247800704180000000e00001003d006f00400056
:102488004480de00300798007041800000407800ea
:102498006f406000004f9800be009000d0072000f9
:1024a800808f500014003c003e009000cf80de007a
:1024b80052832000c1010700508320006bfc0700f5
:1024c8008000780050832000008040002200200017
:1024d800e1be2800a9fb07000e4890000080fb0021
:1024e800c1c0280061407800b0e8b700018b200027
:1024f800508320004cfc07003468ef0002003700ce
:102508003468ef00000000002100370045c8bf0014
:102518000040e80045e8b70045c8bf00e24f50005a
:102528001a00360032002000d1c128005083200054
:1025380092fb07004568ef00150037000000000017
:1025480013003700000000001100370000000000f1
:102558000f003700000000000d00370000000000e9
:102568000b003700000000000900370000000000e1
:1025780007003700000000000500370000000000d9
:1025880003003700000000000100370000000000d1
:102598000080fa00000006000000fa00cda2a900a1
:1025a800cc82a900cd82a900cce2a900800c200031
:1025b8000100200028020700cce2a8000080fa00f1
:1025c800000006000000fa00cd82a8000080fa0092
:1025d800000006000000fa00cd82a9000080fa0081
:1025e800000006000000fa0049c8bf000004e0002f
:1025f80060003200724080008340800050408000bc
:1026080061408000800f5100818f590027003400fd
:1026180050408000614080000001be00e040800022
:10262800f1408000800f5100818f59001a0031005d
:10263800cc82a9002bc8bf000004a2000004e0005f
:102648000400320010c0b3002be8b700cda2a800e8
:10265800850037002b68ef00cda2a900504080000c
:102668006140800061004000e080480050408800e0
:102678006140880028c8bf000004e0007a003200ea
:102688002868ef005040800061408000704088005a
:10269800814088007400370050408000614080000d
:1026a80070408800814088006f00370072408000c9
:1026b800834080005040800061408000800f5100be
:1026c800818f590024003d00504080006140800007
:1026d800e00f5000e08f58001a003400cc82a800a8
:1026e8002bc8bf000004a2000004e0000400320070
:1026f80010c0b3002be8b700cda2a8005a003700dd
:102708002b68ef00cda2a9005040800061408000f6
:1027180061005000e0805800504088006140880007
:1027280028c8bf000004e0004f0032002868ef000e
:1027380050408000614080007040880081408800df
:102748004900370050408000614080007040880098
:10275800814088004400370010c0b3002ae8b70061
:102768002768ef00504080006140800086fd070028
:102778003d0037007040800081408000e00f50002d
:10278800e08f580018003400cc82a9002bc8bf0085
:102798000004a2000004e0000400320010c0b300ee
:1027a8002be8b700cda2a8002f0037002b68ef0058
:1027b800cda2a900704080008140800061005000d7
:1027c800e0805800704088008140880028c8bf0019
:1027d8000004e000240032002868ef000e28ef0013
:1027e8001028ef00200037007040800081408000f2
:1027f800e00f5000e08f580018003d00cc82a80080
:102808002bc8bf000004a2000004e000040032004e
:1028180010c0b3002be8b700cda2a8001200370003
:102828002b68ef00cda2a900704080008140800095
:1028380061004000e08048007040880081408800c6
:1028480028c8bf000004e000070032002868ef0035
:102858000e28ef001028ef000300370010c0b30067
:102868002ae8b7002768ef000080fa000000060099
:102878000000fa003085200096fa070070408800b2
:102888008140880010c0b30029e8b7002a68ef002b
:102898002c68ef0010c0b30027e8b7001900070044
:1028a8000080fa00000006000000fa0030852000d1
:1028b80088fa0700e0408800f1408800110007000e
:1028c8000080fa00000006000000fa0030852000b1
:1028d80080fa0700004188001141880009000700bc
:1028e8000080fa00000006000000fa003085200091
:1028f80048fa070020418800020007000080fa001b
:10290800000006000000fa004a68ef000868ef00bf
:102918000080fa00000006000000fa0072002000a3
:102928008000eb0030852000dbfa07004c28ef0020
:102938000080fa00000006000000fa006002200093
:10294800303a8800213a8000f0f32f0000806000c0
:10295800203a8800213a800000fe2f0000806000a5
:10296800203a88004827ef0040a7a900000000008f
:10297800113a800000022000008060000000e000a2
:10298800fbff32000080fa00000006000000fa0099
:10299800f003200060198800c082a800c802a800bf
:1029a800c822a900c882a900c8e2a900c982a90052
:1029b800c9a2a900c9e2a900c9c2a800c902a90000
:1029c800c922a900cd02a800cd22a800e00020005d
:1029d8002035880071368000f00f2e00808060005e
:1029e800003020000100700070368800cc22a90059
:1029f8000080fa00000006000000fa000e28ef0030
:102a08001028ef002668ef004a68ef002768ef00fb
:102a18004968ef003468ef003028ef003228ef00f3
:102a28004768ef004868ef004568ef0050408000b5
:102a38006140800022812000600007002081200082
:102a48000afb0700800078002081200000804000f9
:102a58002200200001bf280048fa07005283200006
:102a68006000b8005500070050832000fffa0700f7
:102a78008000780050832000008040004200200041
:102a880061bb28003dfa07000080fa00000006003c
:102a98000000fa0005e1a9000421a90004c1a90069
:102aa8002108800000032000010070002008880031
:102ab8000021ef0090d02300100888002105800035
:102ac800f0ff28000080600000d0a00020058800ea
:102ad8008460a9009460a80040a7a9000080fa00bb
:102ae800000006000000fa0011e1a90011a1a900e8
:102af8001021a90010c1a90081088000f0fc2f0056
:102b0800008060000050a000800888001061a900c3
:102b18000621ef00409c20006008880031058000f5
:102b2800f0ff280080806000000023000100700092
:102b38003005880084e0a90094e0a8000080fa002d
:102b4800000006000000fa002182a900011180009f
:102b580090ff2f0000806000001188002002a9006b
:102b680020a2a9002062a90030102000401188008e
:102b780041058000f0ff28008080600000002500eb
:102b880001007000400588008560a9009560a800d4
:102b980021068000f0f82f00008060000060a0008f
:102ba800200688008c20a9009c20a80021e2a8000b
:102bb8002342a8000080fa00000006001800fa006e
:102bc800100f9800210f9800320f9800e600470078
:102bd80002c228000a000900b2587800be09900015
:102be800030f78001e089000ae089000e00f500018
:102bf800e08f58000a003d001e007800d1c2b300e3
:102c0800014878001e0fe8001e089000ae089000ea
:102c180060001000e0801800100f9800210f980045
:102c28001e099000ae09900012079800230798002b
:102c38001e0fe8001e009000ae009000a2002000c9
:102c48000300200038f907001007980021079800b2
:102c58001e009000ae009000e00f5000e08f58007a
:102c6800f3ff3a001e0078008040eb00014878002e
:102c78001e0fe9001e089000ae089000a200200078
:102c88000300200037f907006601470000004100f3
:102c9800904078001e007800014878001e089000d7
:102ca800ae089000a2002000030020001ef90700d3
:102cb800100f9800210f98001e089000ae08900091
:102cc800e00f5000e08f5800e9ff3a003e089000fe
:102cd8000080fa00000006000400fa00004f7800a7
:102ce8001147980022479800334798001e80fb0040
:102cf800c800dd001e4090000080fb00010070004d
:102d0800c800dd002e4090000080fb00010070002c
:102d1800c800dd003e4090000080fb00010070000c
:102d28000080fa00000006000000fa0000c8bf009a
:102d38000004e0001400320046c8bf000040e8006c
:102d480046e8b70046c8bf00e54f500031003600de
:102d58004668ef00601680000000d1006140600006
:102d68000004a200614060000080fb006100600078
:102d780000004000611680000110a10001007000f1
:102d8800601688002300370047c8bf000004e00031
:102d98001400320046c8bf000040e80046e8b7000b
:102da80046c8bf00e24f50001a0036004668ef00e0
:102db800601680000000d100614060000004a2009d
:102dc800614060000080fb0061006000000040007e
:102dd800611680000110a1000100700060168800d3
:102de8000c00370046c8bf000040e80046e8b700be
:102df800618420009140780020c3b30080cf500048
:102e0800030036004668ef00cc22a9000100370015
:102e1800cc22a8000080fa00000006000000fa009a
:102e2800c5fe0700d9fe07003efc0700f2fe0700ba
:102e3800d9fd070043ff070015ff070029ff07001a
:102e4800e0fd070005e1a80011e1a80040a7a800df
:082e58000060fe00feff3700e0
:020000040000fa
:102e6000f03fb1000180b10006003500ee0309001b
:102e700000000000403fb1000180b100fbff3d00b9
:102e80001000b000203fb0000200350000800900b3
:082e9000000000000000060034
:020000040000fa
:102e980000080000b000000000000000b0080000ba
:102ea80004000000020000002023000000000000d1
:042eb8000000000016
:020000040000fa
:0200000401f009
:04000c00830000006d
:020000040000fa
:0200000401f009
:040010006600000086
:020000040000fa
:0200000401f009
:0400140047000000a1
:020000040000fa
:0200000401f009
:04001c00deff000003
:00000001FF
